75600001R0000000  4327123456712345678900                              SOCIEDADE BRASILEIRA DE ZOOLOG                                                                                000000011407201500000000000                                 
0000000300001P 01                       123456789012345679022 00000000123456714072015000000000005000000000N  14072015100000000000000000000000000000000000000000000000               000000000000000                         00000000900000000000
0000000300002Q 010100082136760505PABLO DIEGO JOSE FRANCISCO DE PAULA JUANRUA RIO GRANDE DO SUL SAO PAULO MINAS CASAO JOSE DOS QU12345678SANTA RITA DE CSP0100012345678901ISABEL CRISTINA LEOPOLDINA ALGUSTA MIGUE                               
00000005         00000100000000000005000000000                                                                                                                                                                                                  